:020000020000FC
:1000000058E05EBF5FEF5DBF5FEF5AB954B903E3DD
:100010000E9429000E945E0002E30E9429000E94C3
:100020005E0008E20E9429000E945E000EE00E942D
:10003000290001E00E9429000E945E0006E00E9463
:10004000290008E40E943F0009E60E943F000C944A
:100050002700B02FB07FBBB9289829982A9A0E9410
:1000600053002A980E945600B02FB295B07FBBB9BA
:100070002A9A0E9453002A980E9456000895B02F91
:10008000B07FBBB9289A29982A9A0E9453002A98CF
:10009000B02FB295B07FBBB92A9A0E9453002A981C
:1000A0000E94560008950000000008951F931CE36D
:1000B0000E9453001A95E1F71F9108951F9314E1D0
:0C00C0000E9456001A95E1F71F91089568
:00000001FF
